{
  "_format": "hh-sol-artifact-1",
  "contractName": "Create",
  "sourceName": "contracts/VotingContract.sol",
  "abi": [
    {
      "inputs": [],
      "stateMutability": "nonpayable",
      "type": "constructor"
    },
    {
      "anonymous": false,
      "inputs": [
        {
          "indexed": true,
          "internalType": "uint256",
          "name": "candidateId",
          "type": "uint256"
        },
        {
          "indexed": false,
          "internalType": "uint256",
          "name": "age",
          "type": "uint256"
        },
        {
          "indexed": false,
          "internalType": "string",
          "name": "name",
          "type": "string"
        },
        {
          "indexed": false,
          "internalType": "string",
          "name": "image",
          "type": "string"
        },
        {
          "indexed": false,
          "internalType": "uint256",
          "name": "voteCount",
          "type": "uint256"
        },
        {
          "indexed": false,
          "internalType": "address",
          "name": "_address",
          "type": "address"
        },
        {
          "indexed": false,
          "internalType": "string",
          "name": "ipfs",
          "type": "string"
        }
      ],
      "name": "CandidateCreated",
      "type": "event"
    },
    {
      "anonymous": false,
      "inputs": [
        {
          "indexed": true,
          "internalType": "uint256",
          "name": "voter_voterId",
          "type": "uint256"
        },
        {
          "indexed": false,
          "internalType": "string",
          "name": "voter_name",
          "type": "string"
        },
        {
          "indexed": false,
          "internalType": "string",
          "name": "voter_image",
          "type": "string"
        },
        {
          "indexed": false,
          "internalType": "address",
          "name": "voter_address",
          "type": "address"
        },
        {
          "indexed": false,
          "internalType": "uint256",
          "name": "voter_allowed",
          "type": "uint256"
        },
        {
          "indexed": false,
          "internalType": "bool",
          "name": "voter_voted",
          "type": "bool"
        },
        {
          "indexed": false,
          "internalType": "uint256",
          "name": "voter_vote",
          "type": "uint256"
        },
        {
          "indexed": false,
          "internalType": "string",
          "name": "voter_ipfs",
          "type": "string"
        }
      ],
      "name": "VoterCreated",
      "type": "event"
    },
    {
      "inputs": [],
      "name": "_candidateId",
      "outputs": [
        {
          "internalType": "uint256",
          "name": "",
          "type": "uint256"
        }
      ],
      "stateMutability": "view",
      "type": "function"
    },
    {
      "inputs": [],
      "name": "_voterId",
      "outputs": [
        {
          "internalType": "uint256",
          "name": "",
          "type": "uint256"
        }
      ],
      "stateMutability": "view",
      "type": "function"
    },
    {
      "inputs": [
        {
          "internalType": "uint256",
          "name": "",
          "type": "uint256"
        }
      ],
      "name": "candidateAddresses",
      "outputs": [
        {
          "internalType": "address",
          "name": "",
          "type": "address"
        }
      ],
      "stateMutability": "view",
      "type": "function"
    },
    {
      "inputs": [
        {
          "internalType": "address",
          "name": "",
          "type": "address"
        }
      ],
      "name": "candidates",
      "outputs": [
        {
          "internalType": "uint256",
          "name": "candidateId",
          "type": "uint256"
        },
        {
          "internalType": "uint256",
          "name": "age",
          "type": "uint256"
        },
        {
          "internalType": "string",
          "name": "name",
          "type": "string"
        },
        {
          "internalType": "string",
          "name": "image",
          "type": "string"
        },
        {
          "internalType": "uint256",
          "name": "voteCount",
          "type": "uint256"
        },
        {
          "internalType": "address",
          "name": "_address",
          "type": "address"
        },
        {
          "internalType": "string",
          "name": "ipfs",
          "type": "string"
        }
      ],
      "stateMutability": "view",
      "type": "function"
    },
    {
      "inputs": [],
      "name": "getCandidate",
      "outputs": [
        {
          "internalType": "address[]",
          "name": "",
          "type": "address[]"
        }
      ],
      "stateMutability": "view",
      "type": "function"
    },
    {
      "inputs": [
        {
          "internalType": "address",
          "name": "_address",
          "type": "address"
        }
      ],
      "name": "getCandidateDetails",
      "outputs": [
        {
          "components": [
            {
              "internalType": "uint256",
              "name": "candidateId",
              "type": "uint256"
            },
            {
              "internalType": "uint256",
              "name": "age",
              "type": "uint256"
            },
            {
              "internalType": "string",
              "name": "name",
              "type": "string"
            },
            {
              "internalType": "string",
              "name": "image",
              "type": "string"
            },
            {
              "internalType": "uint256",
              "name": "voteCount",
              "type": "uint256"
            },
            {
              "internalType": "address",
              "name": "_address",
              "type": "address"
            },
            {
              "internalType": "string",
              "name": "ipfs",
              "type": "string"
            }
          ],
          "internalType": "struct Create.Candidate",
          "name": "",
          "type": "tuple"
        }
      ],
      "stateMutability": "view",
      "type": "function"
    },
    {
      "inputs": [],
      "name": "getCandidateLength",
      "outputs": [
        {
          "internalType": "uint256",
          "name": "",
          "type": "uint256"
        }
      ],
      "stateMutability": "view",
      "type": "function"
    },
    {
      "inputs": [
        {
          "internalType": "address",
          "name": "_voterAddress",
          "type": "address"
        }
      ],
      "name": "getVoterData",
      "outputs": [
        {
          "components": [
            {
              "internalType": "uint256",
              "name": "voter_voterId",
              "type": "uint256"
            },
            {
              "internalType": "string",
              "name": "voter_name",
              "type": "string"
            },
            {
              "internalType": "string",
              "name": "voter_image",
              "type": "string"
            },
            {
              "internalType": "address",
              "name": "voter_address",
              "type": "address"
            },
            {
              "internalType": "uint256",
              "name": "voter_allowed",
              "type": "uint256"
            },
            {
              "internalType": "bool",
              "name": "voter_voted",
              "type": "bool"
            },
            {
              "internalType": "uint256",
              "name": "voter_vote",
              "type": "uint256"
            },
            {
              "internalType": "string",
              "name": "voter_ipfs",
              "type": "string"
            }
          ],
          "internalType": "struct Create.Voter",
          "name": "",
          "type": "tuple"
        }
      ],
      "stateMutability": "view",
      "type": "function"
    },
    {
      "inputs": [],
      "name": "getVoterList",
      "outputs": [
        {
          "internalType": "address[]",
          "name": "",
          "type": "address[]"
        }
      ],
      "stateMutability": "view",
      "type": "function"
    },
    {
      "inputs": [],
      "name": "getVoterVoterList",
      "outputs": [
        {
          "internalType": "address[]",
          "name": "",
          "type": "address[]"
        }
      ],
      "stateMutability": "view",
      "type": "function"
    },
    {
      "inputs": [],
      "name": "getVotersLength",
      "outputs": [
        {
          "internalType": "uint256",
          "name": "",
          "type": "uint256"
        }
      ],
      "stateMutability": "view",
      "type": "function"
    },
    {
      "inputs": [
        {
          "internalType": "address",
          "name": "_address",
          "type": "address"
        },
        {
          "internalType": "uint256",
          "name": "_age",
          "type": "uint256"
        },
        {
          "internalType": "string",
          "name": "_name",
          "type": "string"
        },
        {
          "internalType": "string",
          "name": "_image",
          "type": "string"
        },
        {
          "internalType": "string",
          "name": "_ipfs",
          "type": "string"
        }
      ],
      "name": "setCandidate",
      "outputs": [],
      "stateMutability": "nonpayable",
      "type": "function"
    },
    {
      "inputs": [
        {
          "internalType": "address",
          "name": "_candidateAddress",
          "type": "address"
        },
        {
          "internalType": "uint256",
          "name": "_candidateVoteId",
          "type": "uint256"
        }
      ],
      "name": "vote",
      "outputs": [],
      "stateMutability": "nonpayable",
      "type": "function"
    },
    {
      "inputs": [
        {
          "internalType": "uint256",
          "name": "",
          "type": "uint256"
        }
      ],
      "name": "votedVoters",
      "outputs": [
        {
          "internalType": "address",
          "name": "",
          "type": "address"
        }
      ],
      "stateMutability": "view",
      "type": "function"
    },
    {
      "inputs": [
        {
          "internalType": "address",
          "name": "_voterAddress",
          "type": "address"
        },
        {
          "internalType": "string",
          "name": "_voter_name",
          "type": "string"
        },
        {
          "internalType": "string",
          "name": "_voter_image",
          "type": "string"
        },
        {
          "internalType": "uint256",
          "name": "_allowed",
          "type": "uint256"
        },
        {
          "internalType": "string",
          "name": "_voter_ipfs",
          "type": "string"
        }
      ],
      "name": "voterRight",
      "outputs": [],
      "stateMutability": "nonpayable",
      "type": "function"
    },
    {
      "inputs": [
        {
          "internalType": "address",
          "name": "",
          "type": "address"
        }
      ],
      "name": "voters",
      "outputs": [
        {
          "internalType": "uint256",
          "name": "voter_voterId",
          "type": "uint256"
        },
        {
          "internalType": "string",
          "name": "voter_name",
          "type": "string"
        },
        {
          "internalType": "string",
          "name": "voter_image",
          "type": "string"
        },
        {
          "internalType": "address",
          "name": "voter_address",
          "type": "address"
        },
        {
          "internalType": "uint256",
          "name": "voter_allowed",
          "type": "uint256"
        },
        {
          "internalType": "bool",
          "name": "voter_voted",
          "type": "bool"
        },
        {
          "internalType": "uint256",
          "name": "voter_vote",
          "type": "uint256"
        },
        {
          "internalType": "string",
          "name": "voter_ipfs",
          "type": "string"
        }
      ],
      "stateMutability": "view",
      "type": "function"
    },
    {
      "inputs": [
        {
          "internalType": "uint256",
          "name": "",
          "type": "uint256"
        }
      ],
      "name": "votersAddresses",
      "outputs": [
        {
          "internalType": "address",
          "name": "",
          "type": "address"
        }
      ],
      "stateMutability": "view",
      "type": "function"
    },
    {
      "inputs": [],
      "name": "votingOrganizer",
      "outputs": [
        {
          "internalType": "address",
          "name": "",
          "type": "address"
        }
      ],
      "stateMutability": "view",
      "type": "function"
    }
  ],
  "bytecode": "0x6080604052348015600f57600080fd5b5033600260006101000a81548173ffffffffffffffffffffffffffffffffffffffff021916908373ffffffffffffffffffffffffffffffffffffffff1602179055506127fc806100606000396000f3fe608060405234801561001057600080fd5b50600436106101165760003560e01c8063a3ec138d116100a2578063b9be315211610071578063b9be315214610316578063d55d73c514610334578063de2237d314610364578063f4abecd214610382578063f7522a831461039e57610116565b8063a3ec138d14610285578063a7388967146102bc578063a81a412e146102da578063b28d92ae146102f857610116565b80635f74bbde116100e95780635f74bbde146101b557806370218b85146101d15780637831ffb3146101ef5780638ab66a901461021f5780638fb4cd801461025557610116565b80631af106791461011b5780633dac4cdd1461014b57806353ac5dc3146101675780635cc48aa714610197575b600080fd5b61013560048036038101906101309190611806565b6103bc565b6040516101429190611874565b60405180910390f35b61016560048036038101906101609190611a01565b6103fb565b005b610181600480360381019061017c9190611ad0565b610707565b60405161018e9190611c44565b60405180910390f35b61019f61098a565b6040516101ac9190611874565b60405180910390f35b6101cf60048036038101906101ca9190611c66565b6109b0565b005b6101d9610b83565b6040516101e69190611d55565b60405180910390f35b61020960048036038101906102049190611806565b610c11565b6040516102169190611874565b60405180910390f35b61023960048036038101906102349190611ad0565b610c50565b60405161024c9796959493929190611dd0565b60405180910390f35b61026f600480360381019061026a9190611ad0565b610e4a565b60405161027c9190611f2d565b60405180910390f35b61029f600480360381019061029a9190611ad0565b6110e9565b6040516102b3989796959493929190611f5e565b60405180910390f35b6102c46112f6565b6040516102d19190611ff1565b60405180910390f35b6102e26112fc565b6040516102ef9190611d55565b60405180910390f35b61030061138a565b60405161030d9190611d55565b60405180910390f35b61031e611418565b60405161032b9190611ff1565b60405180910390f35b61034e60048036038101906103499190611806565b61141e565b60405161035b9190611874565b60405180910390f35b61036c61145d565b6040516103799190611ff1565b60405180910390f35b61039c6004803603810190610397919061200c565b61146a565b005b6103a66116ff565b6040516103b39190611ff1565b60405180910390f35b600681815481106103cc57600080fd5b906000526020600020016000915054906101000a900473ffffffffffffffffffffffffffffffffffffffff1681565b600260009054906101000a900473ffffffffffffffffffffffffffffffffffffffff1673ffffffffffffffffffffffffffffffffffffffff163373ffffffffffffffffffffffffffffffffffffffff161461048b576040517f08c379a00000000000000000000000000000000000000000000000000000000081526004016104829061214d565b60405180910390fd5b600082146104ce576040517f08c379a00000000000000000000000000000000000000000000000000000000081526004016104c5906121b9565b60405180910390fd5b6000808154809291906104e090612208565b9190505550600060405180610100016040528060005481526020018681526020018581526020018773ffffffffffffffffffffffffffffffffffffffff1681526020018481526020016000151581526020016103e881526020018381525090506006869080600181540180825580915050600190039060005260206000200160009091909190916101000a81548173ffffffffffffffffffffffffffffffffffffffff021916908373ffffffffffffffffffffffffffffffffffffffff16021790555080600760008873ffffffffffffffffffffffffffffffffffffffff1673ffffffffffffffffffffffffffffffffffffffff168152602001908152602001600020600082015181600001556020820151816001019081610602919061245c565b506040820151816002019081610618919061245c565b5060608201518160030160006101000a81548173ffffffffffffffffffffffffffffffffffffffff021916908373ffffffffffffffffffffffffffffffffffffffff1602179055506080820151816004015560a08201518160050160006101000a81548160ff02191690831515021790555060c0820151816006015560e08201518160070190816106a9919061245c565b509050506000547ff5f39971dd62d9929e3a9feaa6bb77fe7c7da0001babff8a65a7e51ad0201c1986868985608001518660a001518760c00151896040516106f7979695949392919061252e565b60405180910390a2505050505050565b61070f61170c565b600460008373ffffffffffffffffffffffffffffffffffffffff1673ffffffffffffffffffffffffffffffffffffffff1681526020019081526020016000206040518060e0016040529081600082015481526020016001820154815260200160028201805461077d9061227f565b80601f01602080910402602001604051908101604052809291908181526020018280546107a99061227f565b80156107f65780601f106107cb576101008083540402835291602001916107f6565b820191906000526020600020905b8154815290600101906020018083116107d957829003601f168201915b5050505050815260200160038201805461080f9061227f565b80601f016020809104026020016040519081016040528092919081815260200182805461083b9061227f565b80156108885780601f1061085d57610100808354040283529160200191610888565b820191906000526020600020905b81548152906001019060200180831161086b57829003601f168201915b50505050508152602001600482015481526020016005820160009054906101000a900473ffffffffffffffffffffffffffffffffffffffff1673ffffffffffffffffffffffffffffffffffffffff1673ffffffffffffffffffffffffffffffffffffffff1681526020016006820180546109019061227f565b80601f016020809104026020016040519081016040528092919081815260200182805461092d9061227f565b801561097a5780601f1061094f5761010080835404028352916020019161097a565b820191906000526020600020905b81548152906001019060200180831161095d57829003601f168201915b5050505050815250509050919050565b600260009054906101000a900473ffffffffffffffffffffffffffffffffffffffff1681565b6000600760003373ffffffffffffffffffffffffffffffffffffffff1673ffffffffffffffffffffffffffffffffffffffff16815260200190815260200160002090506000816004015403610a3a576040517f08c379a0000000000000000000000000000000000000000000000000000000008152600401610a31906125fe565b60405180910390fd5b600015158160050160009054906101000a900460ff16151514610a92576040517f08c379a0000000000000000000000000000000000000000000000000000000008152600401610a899061266a565b60405180910390fd5b60018160050160006101000a81548160ff0219169083151502179055508181600601819055506000600460008573ffffffffffffffffffffffffffffffffffffffff1673ffffffffffffffffffffffffffffffffffffffff16815260200190815260200160002090508160040154816004016000828254610b13919061268a565b925050819055506005339080600181540180825580915050600190039060005260206000200160009091909190916101000a81548173ffffffffffffffffffffffffffffffffffffffff021916908373ffffffffffffffffffffffffffffffffffffffff16021790555050505050565b60606003805480602002602001604051908101604052809291908181526020018280548015610c0757602002820191906000526020600020905b8160009054906101000a900473ffffffffffffffffffffffffffffffffffffffff1673ffffffffffffffffffffffffffffffffffffffff1681526020019060010190808311610bbd575b5050505050905090565b60058181548110610c2157600080fd5b906000526020600020016000915054906101000a900473ffffffffffffffffffffffffffffffffffffffff1681565b6004602052806000526040600020600091509050806000015490806001015490806002018054610c7f9061227f565b80601f0160208091040260200160405190810160405280929190818152602001828054610cab9061227f565b8015610cf85780601f10610ccd57610100808354040283529160200191610cf8565b820191906000526020600020905b815481529060010190602001808311610cdb57829003601f168201915b505050505090806003018054610d0d9061227f565b80601f0160208091040260200160405190810160405280929190818152602001828054610d399061227f565b8015610d865780601f10610d5b57610100808354040283529160200191610d86565b820191906000526020600020905b815481529060010190602001808311610d6957829003601f168201915b5050505050908060040154908060050160009054906101000a900473ffffffffffffffffffffffffffffffffffffffff1690806006018054610dc79061227f565b80601f0160208091040260200160405190810160405280929190818152602001828054610df39061227f565b8015610e405780601f10610e1557610100808354040283529160200191610e40565b820191906000526020600020905b815481529060010190602001808311610e2357829003601f168201915b5050505050905087565b610e5261175f565b600760008373ffffffffffffffffffffffffffffffffffffffff1673ffffffffffffffffffffffffffffffffffffffff1681526020019081526020016000206040518061010001604052908160008201548152602001600182018054610eb79061227f565b80601f0160208091040260200160405190810160405280929190818152602001828054610ee39061227f565b8015610f305780601f10610f0557610100808354040283529160200191610f30565b820191906000526020600020905b815481529060010190602001808311610f1357829003601f168201915b50505050508152602001600282018054610f499061227f565b80601f0160208091040260200160405190810160405280929190818152602001828054610f759061227f565b8015610fc25780601f10610f9757610100808354040283529160200191610fc2565b820191906000526020600020905b815481529060010190602001808311610fa557829003601f168201915b505050505081526020016003820160009054906101000a900473ffffffffffffffffffffffffffffffffffffffff1673ffffffffffffffffffffffffffffffffffffffff1673ffffffffffffffffffffffffffffffffffffffff168152602001600482015481526020016005820160009054906101000a900460ff16151515158152602001600682015481526020016007820180546110609061227f565b80601f016020809104026020016040519081016040528092919081815260200182805461108c9061227f565b80156110d95780601f106110ae576101008083540402835291602001916110d9565b820191906000526020600020905b8154815290600101906020018083116110bc57829003601f168201915b5050505050815250509050919050565b60076020528060005260406000206000915090508060000154908060010180546111129061227f565b80601f016020809104026020016040519081016040528092919081815260200182805461113e9061227f565b801561118b5780601f106111605761010080835404028352916020019161118b565b820191906000526020600020905b81548152906001019060200180831161116e57829003601f168201915b5050505050908060020180546111a09061227f565b80601f01602080910402602001604051908101604052809291908181526020018280546111cc9061227f565b80156112195780601f106111ee57610100808354040283529160200191611219565b820191906000526020600020905b8154815290600101906020018083116111fc57829003601f168201915b5050505050908060030160009054906101000a900473ffffffffffffffffffffffffffffffffffffffff16908060040154908060050160009054906101000a900460ff16908060060154908060070180546112739061227f565b80601f016020809104026020016040519081016040528092919081815260200182805461129f9061227f565b80156112ec5780601f106112c1576101008083540402835291602001916112ec565b820191906000526020600020905b8154815290600101906020018083116112cf57829003601f168201915b5050505050905088565b60015481565b6060600580548060200260200160405190810160405280929190818152602001828054801561138057602002820191906000526020600020905b8160009054906101000a900473ffffffffffffffffffffffffffffffffffffffff1673ffffffffffffffffffffffffffffffffffffffff1681526020019060010190808311611336575b5050505050905090565b6060600680548060200260200160405190810160405280929190818152602001828054801561140e57602002820191906000526020600020905b8160009054906101000a900473ffffffffffffffffffffffffffffffffffffffff1673ffffffffffffffffffffffffffffffffffffffff16815260200190600101908083116113c4575b5050505050905090565b60005481565b6003818154811061142e57600080fd5b906000526020600020016000915054906101000a900473ffffffffffffffffffffffffffffffffffffffff1681565b6000600680549050905090565b600260009054906101000a900473ffffffffffffffffffffffffffffffffffffffff1673ffffffffffffffffffffffffffffffffffffffff163373ffffffffffffffffffffffffffffffffffffffff16146114fa576040517f08c379a00000000000000000000000000000000000000000000000000000000081526004016114f190612730565b60405180910390fd5b6001600081548092919061150d90612208565b919050555060006040518060e001604052806001548152602001868152602001858152602001848152602001600081526020018773ffffffffffffffffffffffffffffffffffffffff1681526020018381525090506003869080600181540180825580915050600190039060005260206000200160009091909190916101000a81548173ffffffffffffffffffffffffffffffffffffffff021916908373ffffffffffffffffffffffffffffffffffffffff16021790555080600460008873ffffffffffffffffffffffffffffffffffffffff1673ffffffffffffffffffffffffffffffffffffffff1681526020019081526020016000206000820151816000015560208201518160010155604082015181600201908161162e919061245c565b506060820151816003019081611644919061245c565b506080820151816004015560a08201518160050160006101000a81548173ffffffffffffffffffffffffffffffffffffffff021916908373ffffffffffffffffffffffffffffffffffffffff16021790555060c08201518160060190816116ab919061245c565b509050506001547fa8bb72afbd91033ce4d24f16b3cd837ecc18359223ff3f256e7ffb52ec4f382c86868685608001518b886040516116ef96959493929190612750565b60405180910390a2505050505050565b6000600380549050905090565b6040518060e001604052806000815260200160008152602001606081526020016060815260200160008152602001600073ffffffffffffffffffffffffffffffffffffffff168152602001606081525090565b604051806101000160405280600081526020016060815260200160608152602001600073ffffffffffffffffffffffffffffffffffffffff1681526020016000815260200160001515815260200160008152602001606081525090565b6000604051905090565b600080fd5b600080fd5b6000819050919050565b6117e3816117d0565b81146117ee57600080fd5b50565b600081359050611800816117da565b92915050565b60006020828403121561181c5761181b6117c6565b5b600061182a848285016117f1565b91505092915050565b600073ffffffffffffffffffffffffffffffffffffffff82169050919050565b600061185e82611833565b9050919050565b61186e81611853565b82525050565b60006020820190506118896000830184611865565b92915050565b61189881611853565b81146118a357600080fd5b50565b6000813590506118b58161188f565b92915050565b600080fd5b600080fd5b6000601f19601f8301169050919050565b7f4e487b7100000000000000000000000000000000000000000000000000000000600052604160045260246000fd5b61190e826118c5565b810181811067ffffffffffffffff8211171561192d5761192c6118d6565b5b80604052505050565b60006119406117bc565b905061194c8282611905565b919050565b600067ffffffffffffffff82111561196c5761196b6118d6565b5b611975826118c5565b9050602081019050919050565b82818337600083830152505050565b60006119a461199f84611951565b611936565b9050828152602081018484840111156119c0576119bf6118c0565b5b6119cb848285611982565b509392505050565b600082601f8301126119e8576119e76118bb565b5b81356119f8848260208601611991565b91505092915050565b600080600080600060a08688031215611a1d57611a1c6117c6565b5b6000611a2b888289016118a6565b955050602086013567ffffffffffffffff811115611a4c57611a4b6117cb565b5b611a58888289016119d3565b945050604086013567ffffffffffffffff811115611a7957611a786117cb565b5b611a85888289016119d3565b9350506060611a96888289016117f1565b925050608086013567ffffffffffffffff811115611ab757611ab66117cb565b5b611ac3888289016119d3565b9150509295509295909350565b600060208284031215611ae657611ae56117c6565b5b6000611af4848285016118a6565b91505092915050565b611b06816117d0565b82525050565b600081519050919050565b600082825260208201905092915050565b60005b83811015611b46578082015181840152602081019050611b2b565b60008484015250505050565b6000611b5d82611b0c565b611b678185611b17565b9350611b77818560208601611b28565b611b80816118c5565b840191505092915050565b611b9481611853565b82525050565b600060e083016000830151611bb26000860182611afd565b506020830151611bc56020860182611afd565b5060408301518482036040860152611bdd8282611b52565b91505060608301518482036060860152611bf78282611b52565b9150506080830151611c0c6080860182611afd565b5060a0830151611c1f60a0860182611b8b565b5060c083015184820360c0860152611c378282611b52565b9150508091505092915050565b60006020820190508181036000830152611c5e8184611b9a565b905092915050565b60008060408385031215611c7d57611c7c6117c6565b5b6000611c8b858286016118a6565b9250506020611c9c858286016117f1565b9150509250929050565b600081519050919050565b600082825260208201905092915050565b6000819050602082019050919050565b6000611cde8383611b8b565b60208301905092915050565b6000602082019050919050565b6000611d0282611ca6565b611d0c8185611cb1565b9350611d1783611cc2565b8060005b83811015611d48578151611d2f8882611cd2565b9750611d3a83611cea565b925050600181019050611d1b565b5085935050505092915050565b60006020820190508181036000830152611d6f8184611cf7565b905092915050565b611d80816117d0565b82525050565b600082825260208201905092915050565b6000611da282611b0c565b611dac8185611d86565b9350611dbc818560208601611b28565b611dc5816118c5565b840191505092915050565b600060e082019050611de5600083018a611d77565b611df26020830189611d77565b8181036040830152611e048188611d97565b90508181036060830152611e188187611d97565b9050611e276080830186611d77565b611e3460a0830185611865565b81810360c0830152611e468184611d97565b905098975050505050505050565b60008115159050919050565b611e6981611e54565b82525050565b600061010083016000830151611e886000860182611afd565b5060208301518482036020860152611ea08282611b52565b91505060408301518482036040860152611eba8282611b52565b9150506060830151611ecf6060860182611b8b565b506080830151611ee26080860182611afd565b5060a0830151611ef560a0860182611e60565b5060c0830151611f0860c0860182611afd565b5060e083015184820360e0860152611f208282611b52565b9150508091505092915050565b60006020820190508181036000830152611f478184611e6f565b905092915050565b611f5881611e54565b82525050565b600061010082019050611f74600083018b611d77565b8181036020830152611f86818a611d97565b90508181036040830152611f9a8189611d97565b9050611fa96060830188611865565b611fb66080830187611d77565b611fc360a0830186611f4f565b611fd060c0830185611d77565b81810360e0830152611fe28184611d97565b90509998505050505050505050565b60006020820190506120066000830184611d77565b92915050565b600080600080600060a08688031215612028576120276117c6565b5b6000612036888289016118a6565b9550506020612047888289016117f1565b945050604086013567ffffffffffffffff811115612068576120676117cb565b5b612074888289016119d3565b935050606086013567ffffffffffffffff811115612095576120946117cb565b5b6120a1888289016119d3565b925050608086013567ffffffffffffffff8111156120c2576120c16117cb565b5b6120ce888289016119d3565b9150509295509295909350565b7f4f6e6c79206f7267616e697a65722063616e206769766520766f74696e67207260008201527f6967687473000000000000000000000000000000000000000000000000000000602082015250565b6000612137602583611d86565b9150612142826120db565b604082019050919050565b600060208201905081810360008301526121668161212a565b9050919050565b7f566f74657220616c726561647920616c6c6f7765640000000000000000000000600082015250565b60006121a3601583611d86565b91506121ae8261216d565b602082019050919050565b600060208201905081810360008301526121d281612196565b9050919050565b7f4e487b7100000000000000000000000000000000000000000000000000000000600052601160045260246000fd5b6000612213826117d0565b91507fffffffffffffffffffffffffffffffffffffffffffffffffffffffffffffffff8203612245576122446121d9565b5b600182019050919050565b7f4e487b7100000000000000000000000000000000000000000000000000000000600052602260045260246000fd5b6000600282049050600182168061229757607f821691505b6020821081036122aa576122a9612250565b5b50919050565b60008190508160005260206000209050919050565b60006020601f8301049050919050565b600082821b905092915050565b6000600883026123127fffffffffffffffffffffffffffffffffffffffffffffffffffffffffffffffff826122d5565b61231c86836122d5565b95508019841693508086168417925050509392505050565b6000819050919050565b600061235961235461234f846117d0565b612334565b6117d0565b9050919050565b6000819050919050565b6123738361233e565b61238761237f82612360565b8484546122e2565b825550505050565b600090565b61239c61238f565b6123a781848461236a565b505050565b5b818110156123cb576123c0600082612394565b6001810190506123ad565b5050565b601f821115612410576123e1816122b0565b6123ea846122c5565b810160208510156123f9578190505b61240d612405856122c5565b8301826123ac565b50505b505050565b600082821c905092915050565b600061243360001984600802612415565b1980831691505092915050565b600061244c8383612422565b9150826002028217905092915050565b61246582611b0c565b67ffffffffffffffff81111561247e5761247d6118d6565b5b612488825461227f565b6124938282856123cf565b600060209050601f8311600181146124c657600084156124b4578287015190505b6124be8582612440565b865550612526565b601f1984166124d4866122b0565b60005b828110156124fc578489015182556001820191506020850194506020810190506124d7565b868310156125195784890151612515601f891682612422565b8355505b6001600288020188555050505b505050505050565b600060e0820190508181036000830152612548818a611d97565b9050818103602083015261255c8189611d97565b905061256b6040830188611865565b6125786060830187611d77565b6125856080830186611f4f565b61259260a0830185611d77565b81810360c08301526125a48184611d97565b905098975050505050505050565b7f486173206e6f20726967687420746f20766f7465000000000000000000000000600082015250565b60006125e8601483611d86565b91506125f3826125b2565b602082019050919050565b60006020820190508181036000830152612617816125db565b9050919050565b7f416c726561647920766f74656400000000000000000000000000000000000000600082015250565b6000612654600d83611d86565b915061265f8261261e565b602082019050919050565b6000602082019050818103600083015261268381612647565b9050919050565b6000612695826117d0565b91506126a0836117d0565b92508282019050808211156126b8576126b76121d9565b5b92915050565b7f4f6e6c79206f7267616e697a65722063616e206164642063616e64696461746560008201527f7300000000000000000000000000000000000000000000000000000000000000602082015250565b600061271a602183611d86565b9150612725826126be565b604082019050919050565b600060208201905081810360008301526127498161270d565b9050919050565b600060c0820190506127656000830189611d77565b81810360208301526127778188611d97565b9050818103604083015261278b8187611d97565b905061279a6060830186611d77565b6127a76080830185611865565b81810360a08301526127b98184611d97565b905097965050505050505056fea2646970667358221220d6248492b1fc518d66a898eddcea48dea6f5d76d5cf64c16a7741f6bcf124e8564736f6c634300081c0033",
  "linkReferences": {},
  "deployedLinkReferences": {}
}